S013000052504D5F436F756E7465722E73726563E3
S11300000C9434000C9433010C9451000C94510062
S11300100C9451000C9451000C9451000C94510018
S11300200C9451000C9451000C9451000C944A010E
S11300300C9451000C9451000C9451000C945100F8
S11300400C9451000C9451000C9451000C945100E8
S11300500C9451000C9451000C9451000C945100D8
S11300600C9451000C94510011241FBECFEFD8E022
S1130070DEBFCDBF11E0A0E0B1E0E0E4F4E002C0F7
S113008005900D92A433B107D9F721E0A4E3B1E0C0
S113009001C01D92AF33B207E1F70E94A9010C948D
S11300A01E020C940000E0913701F0913801808128
S11300B08F7E80838FE99FE00197F1F700C00000F5
S11300C0E0913701F09138018081806180838FE96C
S11300D09FE00197F1F700C00000E0913701F09133
S11300E0380180818F7E80838FE39CE90197F1F74B
S11300F000C000000895CF93DF93C62F823011F41F
S1130100D0E201C0D0E0E0913701F09138018C2FAA
S113011082958F708D0F80830E945300E091370188
S1130120F0913801CF70CD0FC0830E945300DF914E
S1130130CF91089561E081E00E947B000895CF9300
S113014090933A018093390199278732910591F070
S11301508A329105E1F0849739F583E290E0909337
S11301603C0180933B0185E290E0909338018093B9
S113017037011EC086E290E090933C0180933B01DE
S113018088E290E0909338018093370111C089E2AE
S113019090E090933C0180933B018BE290E090933C
S11301A038018093370104C081E090E00E941E0270
S11301B0E0913901F0913A018FE380832FEF80E7DA
S11301C092E0215080409040E1F700C00000E091AF
S11301D03701F0913801C3E0C0830E945300E091DD
S11301E03701F0913801C0830E945300E091370138
S11301F0F0913801C0830E945300E0913701F091DF
S1130200380182E080830E94530068E281E00E940A
S11302107B006FE081E00E947B000E949A0066E010
S113022081E00E947B00CF910895813021F470E039
S113023061587F4F03C070E061547F4F81E00E949A
S11302407B000895CF93DF93FC016081662341F026
S1130250EC01219682E00E947B0069916111FACF42
S1130260DF91CF9108951F920F920FB60F92112430
S11302708F939F93809135019091360101969093CD
S11302803601809335019F918F910F900FBE0F908F
S11302901F9018951F920F920FB60F9211242F934F
S11302A03F934F938F939F93209135013091360163
S11302B04FE0429FC001439F900D112490933E0153
S11302C080933D0181E080933401109236011092B5
S11302D0350110928500109284009F918F914F9167
S11302E03F912F910F900FBE0F901F90189580E0B3
S11302F091E00E9422012FEF8DE399E42150804088
S11303009040E1F700C000000E949A008EE091E066
S11303100E94220108952298E9E6F0E0808182603B
S1130320808380818E7F8083E89A08951092800074
S1130330E1E8F0E0808185608083EFE6F0E0808191
S11303408260808384E294EF909389008093880094
S11303500895CF93DF93CDB7DEB72A970FB6F894FD
S1130360DEBF0FBECDBF87E290E00E949F000E94D7
S113037077010E948B010E94960178948091340148
S11303808130E1F7F89480913D0190913E014AE07B
S1130390BE016F5F7F4F0E94E9011092340178948F
S11303A060E082E00E9415018EE191E00E9422014A
S11303B060E082E00E94150189E291E00E9422013E
S11303C0CE0101960E9422018FE291E00E94220157
S11303D0D5CFBB274A3031F4992322F4BDE290955E
S11303E081959F4F0C94F501BB27FB015527AA2744
S11303F0880F991FAA1FA41710F0A41B83955051AE
S1130400B9F7A05DAA3308F0A95DA193009779F725
S1130410B111B1931192CB010C940E02DC01FC01D9
S1130420672F71917723E1F7329704C07C916D9324
S113043070836291AE17BF07C8F30895F894FFCF95
S11304402020204269656E76656E69646F004D6F89
S1130450746F7220676972616E646F20610020207E
S113046020202020202020202020202020200020A8
S107047072706D0035
S9030000FC
